S01000007072656C61625F342E737265630B
S11300000C9434000C9446000C9446000C94730039
S11300100C9446000C9446000C9446000C94460044
S11300200C9446000C9446000C9446000C94460034
S11300300C9446000C9446000C9446000C94460024
S11300400C9446000C9446000C9446000C94460014
S11300500C9446000C9446000C9446000C94460004
S11300600C9446000C94460011241FBECFEFD8E038
S1130070DEBFCDBF21E0A0E0B1E001C01D92A13000
S1130080B207E1F70E946E000C9490000C940000FB
S113009095B180910001907F8F70892B85B995B1BE
S11300A080910001892B807F85B90895F8949FEF92
S11300B09AB91BB884B18F7C84B985B1806385B942
S11300C0EBE6F0E080818F6C8083E8E6F0E08081ED
S11300D0816080831AB89BB9789408950E94560071
S11300E00E944800FDCF1F920F920FB60F92112469
S11300F08F939F9383B184FD05C0909100019F5F0E
S11301009093000185FD05C080910001815080938A
S113011000019F918F910F900FBE0F901F90189523
S1070120F894FFCF7D
S9030000FC
