S01000007072656C61625F342E737265630B
S11300000C9434000C9446000C9446000C94790033
S11300100C9446000C9446000C9446000C94460044
S11300200C9446000C9446000C9446000C94460034
S11300300C9446000C9446000C9446000C94460024
S11300400C9446000C9446000C9446000C94460014
S11300500C9446000C9446000C9446000C94460004
S11300600C9446000C94460011241FBECFEFD8E038
S1130070DEBFCDBF21E0A0E0B1E001C01D92A13000
S1130080B207E1F70E9474000C9493000C940000F2
S113009095B180910001907F8F70892B85B998B1BB
S11300A080910001907F82958F70892B88B9089583
S11300B0F8948AB18FEF8AB99BB19BB997B187B98C
S11300C088B188B984B18F6084B985B1806385B9FA
S11300D0EBE6F0E0808180638083E8E6F0E08081F5
S11300E081608083789408950E9458000E9448009B
S11300F0FDCF1F920F920FB60F9211248F931C996C
S113010005C0809100018F5F809300011D9905C097
S1130110809100018150809300018F910F900FBE58
S10D01200F901F901895F894FFCF7C
S9030000FC
