S01000007072656C61625F342E737265630B
S11300000C9434000C9446000C9446000C94530059
S11300100C9446000C9446000C9446000C94460044
S11300200C9446000C9446000C9446000C94460034
S11300300C9446000C9446000C9446000C94460024
S11300400C9446000C9446000C9446000C94460014
S11300500C9446000C9446000C9446000C94460004
S11300600C9446000C94460011241FBECFEFD8E038
S1130070DEBFCDBF21E0A0E0B1E001C01D92A230FF
S1130080B207E1F70E9492000C94A4000C940000C3
S1130090E8E6F0E0808181608083EBE6F0E0808137
S11300A08063808308951F920F920FB60F921124DC
S11300B08F939F931C9909C0809100019091010135
S11300C0019690930101809300011D9909C08091CC
S11300D00001909101010197909301018093000127
S11300E09F918F910F900FBE0F901F90189525B17F
S11300F08091000190910101922F907F8F70892B44
S113010085B928B180910001909101019295829561
S11301108F7089279F708927922F907F8F70892BEA
S113012088B9089584B18F6084B987B18F6087B925
S113013084B18F7C84B985B1806385B90E944800FD
S10F014078940E947700FDCFF894FFCF64
S9030000FC
